:020000040800F2
:1000000068070020010100087F290008B1260008C8
:100010007D290008AD0A00084F32000800000000EA
:10002000000000000000000000000000312A00086D
:10003000D50A000800000000D5290008A52A0008FC
:100040001B0100081B0100081B0100081B01000820
:100050001B0100081B0100081B0100081B01000810
:100060001B0100081B0100081B0100081B01000800
:100070001B0100081B0100081B0100081B010008F0
:100080001B0100081B0100081B0100081B010008E0
:100090001B0100081B0100081B0100081B010008D0
:1000A000252B0008492B00083D2B0008312B0008A8
:1000B000552B00081B010008612B00081B010008DC
:1000C0001B0100081B0100081B0100081B010008A0
:1000D0001B0100081B010008E53100081B01000896
:1000E0001B0100081B0100081B010008DFF80CD0F1
:1000F00000F09CFC004800478D3C00086807002089
:100100000648804706480047FEE7FEE7FEE7FEE7B1
:10011000FEE7FEE7FEE7FEE7FEE7FEE7212B00082D
:10012000ED0000082DE9F0410024061B254671F181
:10013000000605DA01240027D0EB070067EB010178
:10014000161E73F1000605DA0027D2EB070201251F
:1001500067EB030300F054FB86460E4617469C46A9
:10016000AC4204D00025D0EB050E65EB010624B1AE
:100170000020D2EB000760EB030C704631463A4694
:100180006346BDE8F081202A04DB203A21FA02F020
:100190000021704721FA02F3D040C2F120029140C1
:1001A000084319467047D2B201E000F8012B491EFE
:1001B000FBD270470022F6E710B513460A46044604
:1001C0001946FFF7F0FF204610BDF0B480EA0102A7
:1001D000D40F4200B2EB410F02D20246084611464C
:1001E0004A0042D0C30DDDB2C1F3C752AD1A202D73
:1001F00035DAC1F3160141F4000204B15242C5F1EF
:10020000200602FA06F12A411044B3EBD05F23D056
:10021000C4B1012DA0EBC35009DCF0BC4FF000428B
:1002200002EAC352DBB200F5000000F044BB40001C
:1002300000F1807000EBC350A0F1807040EAD170F3
:10024000490009E0490841EAC071A0EBC35000F53C
:100250000000400800EBC350F0BC00F023BB61423B
:10026000012202EB4101001BF6E7F0BC704781F070
:100270000041AAE780F00040A7E780EA010210B53C
:1002800002F00043400022D04A001FD0010E01EBD3
:100290001261C0F35600C2F3560240F4000042F46B
:1002A0000002A0FB022000047F39140400D0401C8F
:1002B00050EA124001D44000491EC2B20C0604EBC1
:1002C000D010401C4008802A02D003E0002010BD5E
:1002D00020F00100002900DA0020184310BD30B4DE
:1002E00080EA010202F0004530F0004221F00040B7
:1002F00013D090B1C30DD40DC2F31601C0F3160094
:10030000E41A41F4000140F400027D34914201D32B
:10031000641C00E04900002C02DA30BC0020704769
:100320004FF400000023914201D3891A034340088F
:100330004FEA4101F7D151B1914202D14FF0004152
:1003400005E002D24FF0010101E06FF0010103EB83
:10035000C450284430BC00F0A5BA420005D0C0F318
:10036000C7525242914201DC0020704700EBC1505D
:1003700070472DE9FE4F804681EA0300C00F0C460E
:10038000009021F0004123F00045B8EB0200A941A4
:1003900005D24046214690461C460B46024623F0B5
:1003A0000040104347D0270DC7F30A00C3F30A519A
:1003B0000290401A019040286BDAC3F3130040F416
:1003C000801B0098924620B10023D2EB030A63EB16
:1003D0000B0B01985946C0F14002504600F041FA1B
:1003E00006460D4650465946019A00F049FA10EB70
:1003F00008006141002487EA115284EAE7731A4336
:1004000040D0009A62B3019A012A4FEA075215DCE4
:10041000001B61EB02014FF0004202EA0752CDE9F6
:100420000042001C41F5801132462B4600F080FA54
:1004300003B0BDE8F08F40462146F9E7001B61EBB1
:100440000201001C41F5801300185B412018A2F541
:10045000001747EB030140EAD570B6196D4111E072
:100460006D084FEA360645EAC0754FEA0752001B91
:1004700061EB0201001C41F5801149084FEA300090
:100480000019514132462B4603B0BDE8F04F00F051
:1004900040BA0098012240000023D0EB020263EB37
:1004A000E073009821464FEAE074B8EB000061EB7E
:1004B0000401E9E783F000435BE781F0004158E77E
:1004C0002DE9FE4F81EA030404F0004421F00041CD
:1004D00000944FF0000B23F0004350EA01045ED07B
:1004E00052EA03045BD0C3F30A54C1F30A552C4407
:1004F000A4F2F3340194A0FB0254C1F3130141F4BC
:100500008011C3F3130343F4801301FB024400FB87
:10051000034E840A970A44EA815447EA8357A4FBAE
:10052000076802958D0A05FB07854FEA932C04FBAB
:100530000C542705029D4FEA065847EA1637B5EBDB
:1005400008056EEB070C870E920E47EA811742EA08
:100550008312A7FB0201B6EB0B0164EB00042B0D29
:1005600043EA0C335E1844EB1C50DA465146E7FB75
:100570000201C5F313044FEA0B3343EA14534FEA65
:100580000432019C43EA0603A4F10C040294009C8B
:10059000CDE900B400F0CCF903B0BDE8F08F002045
:1005A0000146F9E72DE9F04D81EA030404F0004B20
:1005B00021F0004514464FF0000A23F0004150EAB4
:1005C000050220D054EA01021DD0C5F30A570246A5
:1005D000C5F31303C1F31300C1F30A5640F48015A9
:1005E00043F48013A7EB0608101BD64608F2FD382B
:1005F00073EB050002D308F1010801E092185B419A
:10060000B8F1000F03DA00200146BDE8F08D0020AC
:100610004FF48011064684460EE0171B73EB050766
:1006200005D3121B63EB050306434CEA010C490892
:100630004FEA300092185B4150EA0107EDD152EACF
:10064000030012D082EA040083EA0501084305D0C2
:10065000101BAB4106D20122002306E000224FF01E
:10066000004302E06FF0010253101AEB06004CEB5E
:10067000085110EB0A0041EB0B01BDE8F04D00F012
:1006800048B9C10F80EAE0700844CA0796230021E8
:1006900000F011B996230022114600F00CB90EB5F6
:1006A000C10F80EAE0700844CA07002140F23343DA
:1006B0008DE80E000A460B4600F03AF903B000BD83
:1006C00000F0004220F00040C10DC0F3160040F4DD
:1006D00000007F2901DA00207047962903DCC1F170
:1006E0009601C84001E096398840002AF4D0404283
:1006F000704720F00040C10DC0F3160040F4000028
:100700007F2901DA00207047962903DCC1F19601A8
:10071000C8407047963988407047C1F30A5210B5F7
:10072000C1F3130140F2FF3341F480119A4201DA20
:10073000002010BD40F233439A42A2F2334203DC60
:100740005242FFF720FD10BD904010BD00F0004266
:1007500030F000400AD0C10D01F56071C0F3160001
:1007600042EA0151C2084007114370470020014688
:10077000704701F0004330B421F0004150EA01021B
:1007800006D00A0DA2F56072C1F31301002A02DC43
:1007900030BC00207047440F44EAC104C100E01897
:1007A00030BC00EBC25000F07DB80000002801DB37
:1007B000C0F10040002901DBC1F1004181427047D6
:1007C000002801DBC0F10040002901DBC1F100413C
:1007D0008842704730B50B46014600202022012494
:1007E00009E021FA02F59D4205D303FA02F5491BFF
:1007F00004FA02F52844151EA2F10102F1DC30BD15
:100800002DE9F05F0546002092469B468846064645
:10081000814640241BE02846414647462246FFF7D2
:10082000B2FC53465A46C01A914110D3114618469D
:10083000224600F016F82D1A67EB01084F462246B3
:100840000120002100F00DF817EB00094E41201E99
:10085000A4F10104DFDC484631462A464346BDE8A0
:10086000F09F202A04DB203A00FA02F100207047B2
:100870009140C2F1200320FA03F3194390407047DE
:10088000202A06DBCB17203A41FA02F043EAE07354
:1008900006E041FA02F3D040C2F120029140084341
:1008A000194670470029A8BF7047401C490008BF7F
:1008B00020F00100704710B4B0FA80FC00FA0CF090
:1008C00050EA010404BF10BC704749B1CCF12004C8
:1008D00021FA04F411FA0CF118BF01212143084355
:1008E000A3EB0C01CB1D4FEA00614FEA102042BF81
:1008F000002010BC704700EBC35010440029A4BF77
:1009000010BC7047401C490008BF20F0010010BC1B
:10091000704710B5141E73F1000408DA401C41F151
:10092000000192185B411A4301D120F0010010BD73
:100930002DE9F04D92469B4611B1B1FA81F202E0E9
:10094000B0FA80F220329046FFF78BFF04460F4644
:1009500040EA0A0041EA0B0153465A46084313D0C5
:10096000114653EA010019D0C8F140025046FFF782
:100970000AFC05460E46504659464246FFF771FFAF
:10098000084305D0012004E020463946BDE8F08D3B
:100990000020054346EAE0762C4337430A98630576
:1009A000E40AA0EB08000022FD0A44EA47540A309A
:1009B00002D500200146E9E7010510196941DDE98A
:1009C000084500196941BDE8F04DA2E7C1F30A529C
:1009D000C1F3130140F2FF3341F480119A4202DA6D
:1009E00000200146704740F233439A42A2F233425C
:1009F00002DC5242FFF7C7BBFFF733BF30B5041E1E
:100A000071F1000404DB4FF00044404264EB01014B
:100A1000141E73F1000405DB1C464FF000435242E4
:100A200063EB0403994208BF904230BD064C074D6A
:100A300006E0E06840F0010394E8070098471034AE
:100A4000AC42F6D3FFF756FBE84000080841000827
:100A500070B504462068816811F0010F24D08168C8
:100A600021F00101816000F0FFFA054620688068EE
:100A700010F0010F18D000F0F7FA401B02280ED931
:100A80002068806810F0010F09D0A06A40F01000C3
:100A9000A062E06A40F00100E062012070BD2068C1
:100AA000806810F0010FE6D1002070BDFEE7000065
:100AB0000021018001814FF47A42C1608284C184A7
:100AC00001858161C1610162016101494161704734
:100AD000000040417047000078B44FF0000C002443
:100AE000009490F82420012A14D0012280F82420B8
:100AF0004A681F25072A10D203685E6B521E02EB5C
:100B00008202954026EA05050E6806FA02F22A439B
:100B10005A631FE078BC022070470D2A0DD203688B
:100B20001E6BD21F02EB8202954026EA05050E6875
:100B300006FA02F22A431A630CE00368DE6A0D3AF1
:100B400002EB8202954026EA05050E6806FA02F2DB
:100B50002A43DA620A6807250A2A0DD30368DE6889
:100B60000A3A02EB4202954026EA05058E6806FA2B
:100B700002F22A43DA600BE003681E6902EB4202CC
:100B8000954026EA05058E6806FA02F22A431A61A4
:100B90000A68102A01D0112A0BD10268A2F1804301
:100BA000B3F592330AD0816A41F0200181624FF09F
:100BB000010C80F8244078BC60467047936813F4B9
:100BC000000FF6D1936843F400039360096810297D
:100BD000EFD10949094A0968B1FBF2F101EB810142
:100BE0004900009100990029E3D00099491E009125
:100BF00000990029F9D1DCE71000002040420F00E5
:100C00002DE9F041044600270025002C03D0A06AFE
:100C1000002618B108E00120BDE8F081E66284F802
:100C20002460204600F07EF82046FFF711FF0146C1
:100C3000A06A00F0100252EA010007D0A06A40F05A
:100C40001000A06201210846BDE8F081A06A20F4EE
:100C5000885040F00200A062E2696068237B104384
:100C600047EA43020243A068B0F5807F08D001281C
:100C700006D0002094F814C0BCF1010F03D00BE0A3
:100C80004FF48070F6E7F3B1A36A43F02003A36248
:100C9000E36A43F00103E3622368D3F804C02CF451
:100CA000694C4CEA0000586020688368DFF86CC02B
:100CB00003EA0C0313438360A068B0F5807F09D07A
:100CC000012807D009E0A3695B1E40EA433040F4E5
:100CD0000060E1E7208A401E05052068C36A23F40E
:100CE00070032B43C362206880680D4B184090420C
:100CF00007D1E662A06A20F0020040F00100A06285
:100D0000A1E7A06A20F0020040F01000A062E06AB3
:100D100040F00100E062012195E70000FDF7E1FFEE
:100D2000FE0E1FFF00B585B00021009101910291D8
:100D3000039100680E49884218D10E48816941F438
:100D400000718161816901F400710491816941F050
:100D5000040181618069694600F00400049020204C
:100D6000009003200190044800F07EF805B000BD1B
:100D700000240140001002400008014090F82110BA
:100D80000022022905D00421816380F8202001205F
:100D9000704701680B6823F00E030B6001680B6855
:100DA00023F001030B6090F84030D0F83CC00121E3
:100DB00001FA03F3CCF8043080F8211080F82020E9
:100DC0001046704710B5002490F82110022903D076
:100DD00004218163012437E001680A6822F00E02D1
:100DE0000A6001680A6822F001020A60174A016875
:100DF000914201D101211CE0154A914201D11021FB
:100E000017E0144A914201D1891512E0124A914229
:100E100001D189140DE0114A914202D14FF4803181
:100E200007E00F4A914202D14FF4801101E04FF0E8
:100E300080710C4A5160012180F82110002180F856
:100E40002010416B01B18847204610BD08000240C8
:100E50001C000240300002404400024058000240A2
:100E60006C000240000002402DE9F84F4FF0000CEA
:100E700000230A68002A7DD0DFF8D0810F2708F10F
:100E8000040909F1040A0AF1040B012202FA0CF622
:100E90000A683240B2426ED1DFF8B4E14C68A4EB8C
:100EA0000E0574452BD00DDC032C34D005DC34B397
:100EB000012C19D0022C2FD11BE0112C16D0122C92
:100EC0002AD119E0B5F5881F19D006DCB5F5803FA9
:100ED00015D0B5F5801F1FD111E0B5F5001F0ED05C
:100EE000B5F5041F18D10AE0CB6815E0CB681B1DCF
:100EF00012E0CB6808330FE0CB680C330CE08B6852
:100F000023B1012B04D00823466105E0042303E04C
:100F10000823066100E00023B2F5807F01D2054678
:100F200001E000F1040502D24FEA8C0403E0ACF1C9
:100F300008044FEA84042E6807FA04FE26EA0E0627
:100F400003FA04F446EA04042C604C6814F0805F51
:100F500073D0404CA56945F00105A561A46904F072
:100F6000010400942CF0030404F1804404F580345F
:100F7000A66801E068E060E04FEA8C754FEA1575FD
:100F800007FA05FE26EA0E0EA0F18046B6F5843675
:100F900018D0B6F5806617D0B6F5806616D0B6F5CF
:100FA000806615D0042606FA05F545EA0E05A5600B
:100FB0004C6814F4803F0DD0D8F800401443C8F8B2
:100FC00000400CE00026EEE70126ECE70226EAE707
:100FD0000326E8E7D8F800409443C8F800404C687E
:100FE00014F4003F05D0D9F800401443C9F800407C
:100FF00004E0D9F800409443C9F800404C6814F468
:10100000801F05D0DAF800401443CAF8004004E01D
:10101000DAF800409443CAF800404C6814F4001F0A
:1010200005D0DBF800402243CBF8002005E0DBF8D8
:10103000004024EA0202CBF800200CF1010C0A68FF
:1010400032FA0CF27FF421AFBDE8F88F00040140C2
:101050000000111000100240002A01D00161704709
:101060000904016170470000014880687047000072
:1010700004000020024881680278114481607047B2
:101080000400002010B50748016841F0100101601C
:10109000032000F08BF8002000F006F800F026F89E
:1010A000002010BD0020024070B504460D4D4FF4E5
:1010B0007A712878B1FBF0F00B490968B1FBF0F0C8
:1010C00000F056FC08B1012070BD102C07D20022A0
:1010D0002146501E00F036F86C60002070BD0120E3
:1010E00070BD000004000020100000200C4808B56E
:1010F000816941F001018161816901F00101009183
:10110000C16941F08051C161C06900F08050009018
:101110000448416821F0E06141F00071416008BD80
:10112000001002400000014000280ADB00F01F010F
:10113000012202FA01F14009800000F1E020C0F82C
:101140000011704710B4184B1B68C3F30223C3F19E
:10115000070CBCF1040F01D94FF0040C1C1D072C27
:1011600001D2002300E0DB1E012404FA0CFCACF1E8
:10117000010C0CEA0101994004FA03F35B1E1A40CA
:101180001143002806DB00F1E020090180F800147B
:1011900010BC704700F00F0000F1E020090180F85A
:1011A000141D10BC704700000CED00E000F00700BB
:1011B000064A11684FF6FF03194041EA002040F04B
:1011C000FD7040F080601060704700000CED00E0A2
:1011D0002DE9F8430446DFF81C81207810F0010F58
:1011E0006CD00027D8F81C0010F0805F0BD1D8F825
:1011F0001C0040F08050C8F81C00D8F81C0000F01B
:101200008050009001273C4D286810F4807F16D153
:10121000286840F480702860FFF726FF064628689B
:1012200010F4807F0BD1FFF71FFF801B642802D9C9
:101230000320BDE8F883286810F4807FF3D0D8F845
:10124000200000F4407048B3A18801F4407181424D
:1012500024D0D8F8200020F44070284901220A60E8
:1012600000220A60C8F8200010F0010F16D0FFF726
:10127000FBFE0546D8F8200010F0020F0ED141F217
:101280008836FFF7F1FE401BB04202D90320BDE8CB
:10129000F883D8F8200010F0020FF2D0D8F8200020
:1012A000616820F440700843C8F82000012F05D180
:1012B000D8F81C0020F08050C8F81C00207810F0EE
:1012C000020F07D0D8F80400A16820F4404008437A
:1012D000C8F80400207810F0100F07D0D8F80400E8
:1012E000E16820F480000843C8F804000020BDE84D
:1012F000F8830000001002400070004040044242A9
:101300002DE9F04704460D46002C17D0DFF85C812C
:10131000D8F8000000F00700A84212D2D8F8000068
:1013200020F007002843C8F80000D8F8000000F0BB
:101330000700A84205D00120BDE8F0870120BDE8E4
:10134000F08720684A4E10F0020F14D010F0040FFE
:1013500003D0706840F4E0607060207810F0080FEF
:1013600003D0706840F460507060706820F0F00145
:10137000A06808437060207810F0010F3AD06068D0
:10138000012806D002280BD0316811F0020F27D0B7
:101390000AE0316811F4003F06D10120BDE8F08772
:1013A000316811F0007F18D0716821F00301084303
:1013B0007060FFF759FE07467068616800F00C0026
:1013C000B0EB810F16D041F28839FFF74DFEC01BFC
:1013D000484508D90320BDE8F0870120BDE8F08723
:1013E0000120BDE8F0877068616800F00C00B0EB88
:1013F000810FEAD1D8F8000000F00700A8420FD909
:10140000D8F8000020F007002843C8F80000D8F8FA
:10141000000000F00700A84202D00120BDE8F087DC
:10142000207810F0040F05D07068E16820F4E060C7
:1014300008437060207810F0080F06D070682169AA
:1014400020F4605040EAC100706000F03FF871681D
:10145000084AC1F30311515CC840074908600748B6
:101460000068FFF721FE0020BDE8F0870020024061
:1014700000100240D04000081000002008000020AA
:1014800001480068704700001000002000B5FFF719
:10149000F7FF04494968044AC1F30221515CC8407E
:1014A00000BD000000100240E040000800B5FFF75A
:1014B000E7FF04494968044AC1F3C221515CC840AE
:1014C00000BD000000100240E040000885B015A0FB
:1014D000836842680168C068039302920191049096
:1014E00014A000680090144B5968144801F00C02D5
:1014F000042A11D0082A0FD101A8C1F38342805CCD
:1015000011F4803F0AD05968C1F340411DF8011021
:101510000A4A5043B0FBF1F005B07047084905B0E6
:101520004843704702030405060708090A0B0C0D1F
:101530000E0F1010010200000010024000127A008D
:1015400000093D002DE9F84F0446002C0FD020780B
:10155000F84D10F0010F6CD0686800F00C00042802
:101560000CD0686800F00C00082803D010E00120BF
:10157000BDE8F88F686810F4803F09D0286810F43F
:10158000003F56D06068002853D10120BDE8F88F95
:101590006068B0F5803F15D0C8B1B0F5A02F1FD05E
:1015A000286820F480302860286820F48020286093
:1015B000606858B3FFF758FD0646286810F4003FEE
:1015C00017D036E0286840F480302860F0E72868BB
:1015D00020F480302860286820F480202860E7E725
:1015E000286840F480202860286840F48030286013
:1015F000DEE7FFF739FD801B642802D90320BDE830
:10160000F88F286810F4003FF3D012E0FFF72CFDAC
:101610000646286810F4003F0BD0FFF725FD801B1D
:10162000642802D90320BDE8F88F286810F4003F31
:10163000F3D12078C04F10F0020F4FF0010B4FF0A4
:10164000000854D0686810F00C0F14D0686800F0DF
:101650000C00082803D1686810F4803F0BD0206983
:1016600078B3C7F800B0FFF7FFFC0646286810F013
:10167000020F12D01DE0286810F0020F05D020697B
:10168000012802D00120BDE8F88F2868616920F0A8
:10169000F80040EAC100286029E0FFF7E5FC801B64
:1016A000022802D90320BDE8F88F286810F0020F45
:1016B000F3D02868616920F0F80040EAC100286092
:1016C00015E0FFE7C7F80080FFF7CEFC0646286864
:1016D00010F0020F0BD0FFF7C7FC801B022802D9C5
:1016E0000320BDE8F88F286810F0020FF3D12078AE
:1016F00010F0080F30D09148A169C1B1C0F800B016
:10170000FFF7B2FC0646686A10F0020F0BD1FFF734
:10171000ABFC801B022802D90320BDE8F88F686A61
:1017200010F0020FF3D0012001F070F914E0C0F8BE
:101730000080FFF799FC0646686A10F0020F0BD094
:10174000FFF792FC801B022802D90320BDE8F88F26
:10175000686A10F0020FF3D1207810F0040F6FD0F8
:101760000026E86910F0805F08D1E86940F08050F9
:10177000E861E86900F0805000900126DFF8C0A120
:10178000DAF8000010F4807F1BD1DAF8000040F492
:101790008070CAF80000FFF767FC8146DAF80000A5
:1017A00010F4807F0DD1FFF75FFCA0EB09006428E7
:1017B00002D90320BDE8F88FDAF8000010F4807F2A
:1017C000F1D0E068012816D0D0B1052821D0286AD0
:1017D00020F001002862286A20F004002862E068F6
:1017E00041F2883A68B3FFF73FFC8146286A10F05F
:1017F000020F17D03AE0286A40F001002862EEE7B5
:10180000286A20F001002862286A20F0040028627B
:10181000E5E7286A40F004002862286A40F00100E9
:101820002862DCE7FFF720FCA0EB0900504502D955
:101830000320BDE8F88F286A10F0020FF2D015E0FF
:101840001AE0FFE7FFF710FC8146286A10F0020F4C
:101850000CD0FFF709FCA0EB0900504502D903208A
:10186000BDE8F88F286A10F0020FF2D1012E03D1E3
:10187000E86920F08050E861E069E8B3696801F048
:101880000C0108295ED0022810D0C7F86080FFF74D
:10189000EBFB0446286810F0007F66D0FFF7E4FBFE
:1018A000001B022841D90320BDE8F88FC7F86080EB
:1018B000FFF7DAFB0646286810F0007F0BD0FFF731
:1018C000D3FB801B022802D90320BDE8F88F2868CB
:1018D00010F0007FF3D1206AB0F5803F05D1686831
:1018E000A16820F4003008436860616A206A0843F8
:1018F000696821F4741100E037E008436860C7F8B4
:1019000060B0FFF7B1FB0446286810F0007F2CD1CF
:10191000FFF7AAFB001B022802D90320BDE8F88FBD
:10192000286810F0007FF3D01FE0286810F0007FD7
:10193000B4D11AE00010024000004242800442424A
:101940000070004001280DD06868226A00F48031E0
:10195000914204D1616A00F47010884205D00120E0
:10196000BDE8F88F0120BDE8F88F0020BDE8F88FB2
:10197000401EB0F1807F01D3012070474FF0E0217D
:101980004861044AF0201070002088610720086137
:101990000020704723ED00E07047704730B490F8A6
:1019A0003C20012A2CD0012480F83C40022280F8FF
:1019B0003D200268D2F804C093682CF0700C0D68CA
:1019C00045EA0C0CC2F804C00268A2F1804CBCF5D8
:1019D000963C08D0B2F1804F05D01CF5943C02D063
:1019E000BCF5806C04D123F08003496819439160F1
:1019F00080F83D40002180F83C1030BC002070474A
:101A000030BC0220704710B50446002C03D094F877
:101A10003D0010B107E0012010BD002084F83C001B
:101A2000204600F01FF8022084F83D00211D2068A8
:101A300001F09CF8012084F8460084F83E0084F808
:101A40003F0084F8400084F8410084F8420084F8A4
:101A5000430084F8440084F8450084F83D000020E9
:101A600010BD000008B501681948B1F1804F0BD0D6
:101A7000184A914217D1C16941F00201C161C069A0
:101A800000F00200009008BDC16941F00101C16190
:101A9000C069002200F00100009011461C20FFF7F1
:101AA00051FB1C2010E00C4A9142ECD1C16941F07D
:101AB0000401C161C069002200F0040000901146D9
:101AC0001E20FFF73FFB1E20BDE80840FFF72CBBA0
:101AD00000100240000400400008004090F83D1053
:101AE000012901D001207047022180F83D100168D2
:101AF000CA6842F00102CA600068A0F18041B1F5F5
:101B000096310ED0B0F1804F0BD011F5943108D042
:101B1000B1F5806105D0016841F00101016000204C
:101B20007047816801F007010629F8D0016841F08B
:101B300001010160F3E770B5044694F83C00012808
:101B400018D0012584F83C50022084F83D0020681C
:101B5000826822F0770222F47F428260086850286F
:101B600032D00EDC20284DD006DC00284AD01028C8
:101B70004DD147E0022070BD302843D0402846D1E7
:101B800036E060282AD0702806D0B0F5805F3ED0BD
:101B9000B0F5005F3BD10BE0CB684A6889682068EC
:101BA00001F02FF82068816841F0770181602EE014
:101BB000CB684A688968206801F023F8206881684A
:101BC00041F48041816022E0CA684968206801F0E0
:101BD000EEF85021206801F01FF818E0CA68496843
:101BE000206801F0F7F86021206801F015F80EE098
:101BF000CA684968206801F0DAF84021206801F0DD
:101C00000BF804E022680146104601F005F884F85C
:101C10003D50002084F83C0070BD70B504460D4670
:101C2000002C03D094F83D0010B107E0012070BDF6
:101C3000002084F83C00204600F056F8022084F88A
:101C40003D002068816821F0070121F48041816016
:101C5000211D206800F08AFF206881688269036A7C
:101C6000D5F800C04CEA010122F0030222F44072D0
:101C7000AE69D5F808C042EA06224CEA020222F018
:101C80000C0222F4406222F0F00222F47042EE696B
:101C9000D5F80CC042EA06224CEA0202D5F810C080
:101CA0002E6A4FEA0C1C4CEA063C4CEA020223F076
:101CB0002203D5F804C06D6943EA05134CEA030317
:101CC00081602068826120680362012084F84600F8
:101CD00084F83E0084F83F0084F8420084F8430012
:101CE00084F83D00002070BD00B585B00021009152
:101CF00001910291039100681E49884237D11E4824
:101D0000816941F400618161816901F4006104919C
:101D1000816941F0040181618069694600F0040035
:101D200004904FF4407000901448FFF79DF8002293
:101D300011461820FFF706FA1820FFF7F5F90022E0
:101D400011461920FFF7FEF91920FFF7EDF90022DF
:101D500011461A20FFF7F6F91A20FFF7E5F90022DD
:101D600011461B20FFF7EEF91B20FFF7DDF905B048
:101D700000BD0000002C014000100240000801409E
:101D800030B5044694F83E0094F83F2094F8423071
:101D900094F843C00225002904D004290DD001285D
:101DA0001ED116E0012801D1012B01D0012030BD48
:101DB00084F83E5084F842501CE0012A02D1BCF164
:101DC000010F01D0012030BD84F83F5084F843500A
:101DD00010E0012A04D1012B02D1BCF1010F01D086
:101DE000012030BD84F83E5084F83F5084F84250C2
:101DF00084F8435091B1042916D0012200212068B3
:101E000000F0F0FE01220421206800F0EBFE2068C3
:101E1000016841F001010160002030BD0122002174
:101E2000206800F0DFFEF2E701220421206800F0C4
:101E3000D9FEECE7704770B50446206801694FF0A1
:101E4000000511F0020F17D0C16811F0020F13D076
:101E5000E91E0161012020772068806910F0030FDE
:101E600003D02046FFF7E6FF05E0204600F0CEF85D
:101E7000204600F064F925772068016911F0040F0D
:101E800018D0C16811F0040F14D06FF00401016183
:101E9000022020772068806910F4407F03D020461C
:101EA000FFF7C8FF05E0204600F0B0F8204600F03C
:101EB00046F925772068016911F0080F18D0C1682C
:101EC00011F0080F14D06FF0080101610420207791
:101ED0002068C06910F0030F03D02046FFF7AAFF67
:101EE00005E0204600F092F8204600F028F925771A
:101EF0002068016911F0100F18D0C16811F0100F9F
:101F000014D06FF010010161082020772068C069AB
:101F100010F4407F03D02046FFF78CFF05E02046F9
:101F200000F074F8204600F00AF92577206801696E
:101F300011F0010F09D0C16811F0010F05D06FF049
:101F400001010161204600F051F92068016911F09A
:101F5000800F09D0C16811F0800F05D06FF08001AB
:101F600001612046FFF718FD2068016911F0400F5C
:101F700009D0C16811F0400F05D06FF04001016138
:101F8000204600F059F92068016911F0200F0BD0AC
:101F9000C16811F0200F07D06FF0200101612046C9
:101FA000BDE87040FFF7F9BC70BD000000B585B01A
:101FB0000021009101910291039100680F4988422C
:101FC0001AD10F48816941F0080181618069694631
:101FD00000F008000490302000900220019003904F
:101FE0000848FEF741FF0848416821F4406141F08C
:101FF000E06141F40061416005B000BD00040040B3
:1020000000100240000C014000000140704770B514
:1020100004460D4694F83C0001280AD0012084F8BB
:102020003C0042B1042A1AD0082A2DD00C2A53D1E0
:102030003EE0022070BD2946206800F0F5FD2068D2
:10204000816941F0080181612068816921F0040102
:102050008161206881692A69114381613CE02946D8
:10206000206800F015FE2068816941F400618161FB
:102070002068816921F480618161206881692A6911
:1020800041EA0221816127E02946206800F034FE00
:102090002068C16941F00801C1612068C16921F06F
:1020A0000401C1612068C1692A691143C16113E05B
:1020B0002946206800F054FE2068C16941F400619F
:1020C000C1612068C16921F48061C1612068C16972
:1020D0002A6941EA0221C161002084F83C0070BDF8
:1020E00010B50446002C03D094F83D0010B107E071
:1020F000012010BD002084F83C00204600F01EF8AE
:10210000022084F83D00211D206800F02FFD0120F1
:1021100084F8460084F83E0084F83F0084F84000CC
:1021200084F8410084F8420084F8430084F84400B5
:1021300084F8450084F83D00002010BD70477047CA
:1021400010B50446002909D004290AD008290BD06B
:1021500094F8410001280AD0012010BD94F83E00F7
:10216000F8E794F83F00F5E794F84000F2E7022022
:1021700079B3042931D0082932D084F841000122F2
:10218000206800F02FFD18492068884203D1426C76
:1021900042F4004242642068884210D0B0F1804F7F
:1021A0000DD0A0F18041B1F5806108D0B1F580611A
:1021B00005D0016841F001010160002010BD816877
:1021C00001F007010629F8D0016841F00101016022
:1021D000F3E7FFE784F83E00D1E784F83F00CEE75D
:1021E00084F84000CBE70000002C014030B50168C6
:1021F00001230D4CB1F1804F13D00C4A91420AD10A
:102200000B494FF6E8550A8A521C92B20A82AA423A
:1022100001D900220A8200680649884200D1637011
:1022200030BD237030BD000000000020002C0140B4
:1022300048000020000800407047704770470000C9
:10224000F8B5044622681068D168536900F00F0C95
:10225000BCF1000F0AD110F0200F07D011F0200FB1
:1022600004D02046BDE8F84000F01FBE0025BCF1B8
:10227000000F6DD003F0010C01F490765CEA0606C5
:1022800066D010F0010F06D011F4807F03D0226CCD
:1022900042F00102226410F0040F06D013F0010F87
:1022A00003D0226C42F00202226410F0020F06D02A
:1022B00013F0010F03D0226C42F00402226410F0EC
:1022C000080F08D001F0200252EA0C0203D0226C61
:1022D00042F008022264226C002A2FD010F0200F56
:1022E00005D011F0200F02D0204600F0DEFD20685E
:1022F0004069C0F38010216C01F00801084322D02E
:10230000204600F0ADFD2068416911F0400F16D065
:10231000416921F040014161A06B60B147494163CF
:10232000A06BFEF74FFD002808D0A06B416B01B0F9
:10233000BDE8F04008472046FFF780FFF8BD204683
:10234000FFF77CFFF8BD2046FFF778FF2564F8BD56
:10235000236B012B5BD110F0100F58D011F0100F30
:1023600055D010685068009050694FF0200310F06D
:10237000400F2ED0A16B0868406880B20028E6D0DC
:10238000B4F82CC08445E2D9E0858869202818D0AB
:10239000D06820F48070D0602068416921F001018C
:1023A00041612068416921F04001416184F83E307B
:1023B00025632068C16821F01001C160A06BFEF7A1
:1023C000DDFCA08DE18D401A81B22046FFF735FF7C
:1023D000F8BDA08DE18D401A81B2E08D0028F7D0C4
:1023E0000029F5D0D06820F49070D0602068426950
:1023F00022F00102426184F83E3025632068C26801
:1024000022F01002C2602046FFF717FFF8BD10F05F
:10241000800F07D011F0800F04D02046BDE8F840AF
:1024200000F075BE10F0400FF0D011F0400FEDD06D
:102430002046BDE8F84000F02BBD0000512E0008FA
:1024400070B50446002C04D094F83D00002510B16E
:1024500006E0012070BD84F83C50204600F022F8D0
:10246000242084F83D002068C16821F40051C16037
:10247000204600F0CDFD2068016921F49041016102
:102480002068416921F02A0141612068C16841F456
:102490000051C1602564202084F83D0084F83E008E
:1024A000002070BD30B585B00024009401940294E2
:1024B00003942F4D03682F4802210322AB4229D1F8
:1024C000836943F480438361836903F48043049305
:1024D000836943F0080383618069274D00F0080099
:1024E00004904020CDE90001039269462846FEF79A
:1024F000BBFC8020CDE90004694628460294FEF723
:10250000B3FC1E48416841F0E06141F004014160C4
:1025100005B030BD1A4DAB42FAD1C36943F4003364
:10252000C361C36903F400330493836943F0040374
:1025300083618069134D00F0040004900420CDE90C
:102540000001039269462846FEF78EFC0820CDE97B
:102550000004694628460294FEF786FC00221146D4
:102560002620FEF7EFFD2620FEF7DEFDD0E7000077
:102570000038014000100240000C01400000014002
:10258000004400400008014090F83E30202B01D06C
:102590000220704759B152B190F83C30012B08D05D
:1025A000012380F83C300023036300F095BD012037
:1025B000704702207047000010B50849006809689C
:1025C00088420AD1064800F01FFE05490122BDE8F5
:1025D0001040491D0148FFF7D7BF10BD240300205C
:1025E0007C0100202DE9F84304460E4615461F469F
:1025F00094F83D00202802D00220BDE8F883C6B13F
:10260000BDB194F83C00012816D0012084F83C00AC
:102610004FF00009C4F84090212084F83D00FEF7F7
:1026200023FD8046A584E584A068B0F5805F06D0D0
:1026300007E00120BDE8F8830220BDE8F8832069A7
:1026400080B13546002684F83C90E08CB8B1434612
:10265000002280212046009700F088FD20B1032051
:10266000BDE8F8830025EEE7A5B121682878486029
:102670006D1CE08C401EE084E08C0028E7D14346CE
:10268000002240212046009700F070FD48B1032051
:10269000BDE8F88330882168C0F308004860B61CA4
:1026A000E7E7202084F83D000020BDE8F88370476C
:1026B000FEE700003EB50024114800940194029406
:1026C0000E498460016004730475012505614FF4AF
:1026D00060214460C161FEF793FA08B172B6FEE76B
:1026E0000520CDE90005694602940548FEF7F4F996
:1026F000002801D072B6FEE73EBD00000024014074
:10270000900100202DE9F04186B000251F4800957A
:10271000019502950395816941F0200181618169EC
:1027200001F020010491816941F004018161816916
:1027300001F004010491816941F00801816180691F
:10274000134F00F008000490002280213846FEF765
:1027500083FCDFF84080FE14002231464046FEF73D
:102760007BFC802001248DE8310002256946384633
:102770000395FEF779FBCDE9006469464046CDE953
:102780000245FEF771FB06B0BDE8F0810010024083
:1027900000080140000C014010B58CB024216846AF
:1027A000FDF708FD00241748099415490A94C0E96B
:1027B00000144FF6FF71C0E9024180210461C0E9B5
:1027C00005410120CDE90004CDE902040A2104916C
:1027D000CDE90540CDE9074169460A48FFF71DFAF2
:1027E00008B172B6FEE7099409A906480A94FFF7F2
:1027F000D5F8002801D072B6FEE70CB010BD00007D
:10280000002C0140C001002010B586B000241648FD
:10281000009401940294039404944FF08041059431
:1028200001606321C0E901144FF6FF11C0E90314F0
:102830008461FFF7E8F808B172B6FEE74FF4805004
:10284000009069460848FFF776F908B172B6FEE7CE
:10285000049404A904480594FFF7A0F8002801D0C7
:1028600072B6FEE706B010BD0802002010B58EB0AB
:1028700000240794089409940A940B941C21684638
:102880000C94FDF797FC22482049C0E900144FF64C
:10289000FF11C0E90241802104618161FFF7B3F8B3
:1028A00008B172B6FEE74FF48050079007A91848A8
:1028B000FFF741F908B172B6FEE71548FFF710FCC3
:1028C00008B172B6FEE70B940BA911480C94FFF700
:1028D00065F808B172B6FEE76020CDE90004029405
:1028E000002269460A480494FFF791FB08B172B6CA
:1028F000FEE7042269460648FFF789FB08B172B675
:10290000FEE70348FFF752FB0EB010BD0004004085
:102910005002002010B586B000241748009401949E
:1029200002940394049413490594016040F2E73142
:10293000C0E901144FF6FF11C0E903148461FFF7E9
:1029400062F808B172B6FEE74FF480500090694615
:102950000948FFF7F0F808B172B6FEE7049404A93D
:1029600005480594FFF71AF8002801D072B6FEE773
:1029700006B010BD0008004098020020FEE7FEE708
:102980002DE9F047044609A80E4690E802031746D1
:102990000020089A60622062E061A062E062206329
:1029A00060631D461046FDF7E4FE2061404649463F
:1029B000FDF7DFFE6061666028463146A563FDF7DE
:1029C0008EFC4FF07E51FDF755FC2760C4E9027084
:1029D000BDE8F0877047000070B50E460446B0F9B8
:1029E0000000094901F0F6F805466060B6F92800D4
:1029F000FDF747FE0246044829469C3001F092F854
:102A0000FDF75EFE208170BD7800002081B007498F
:102A10004FF4FA520968B1FBF2F14843009000BF4D
:102A20000098411E0091FAD201B0704710000020BA
:102A30007047000070B50446B1F91400FDF721FE9F
:102A40000546B4F90800FDF71CFE01462A46134866
:102A500001F068F8E0606169FDF741FC4FF07E51DC
:102A6000A061FDF7B2FB4FF0FF31FDF776FCE061AE
:102A7000A58C06462846FDF70DFE3146FDF7FDFB09
:102A8000FDF737FE80B2E084291A218504490A68DF
:102A900050630968208D886370BD00009C00002091
:102AA00050020020FEF7E6BA30B593B02821684600
:102AB000FDF780FB14210AA8FDF77CFB002402250A
:102AC00001200F94049000951020059012944FF46B
:102AD0006010CDE908401194109407956846FEF700
:102AE00031FD08B172B6FEE70F20CDE90A054FF4BB
:102AF0008060CDE90C4002210AA80E94FEF700FC8C
:102B000008B172B6FEE74FF4404011900F950FA840
:102B1000FEF75EFB002801D072B6FEE713B030BDB1
:102B2000704700000148FFF786B90000C00100208F
:102B30000148FFF780B90000C00100200148FFF7FD
:102B40007AB90000C00100200148FFF774B9000005
:102B5000C00100200148FFF76EB900000802002004
:102B60000148FFF768B900009802002030B40268FD
:102B7000194B1A4CDFF868C0984206D0B0F1804F6C
:102B800003D0A04201D0604503D122F070024D680D
:102B90002A43984206D0B0F1804F03D0A04201D022
:102BA000604505D122F44072D1F80CC04CEA020213
:102BB000D1F814C022F0800242EA0C0202608A6856
:102BC000C2620A688262984201D1096901630121E7
:102BD000416130BC70470000002C014000040040FF
:102BE0000008004001F01F0101238B40D0F820C0F5
:102BF0002CEA03030362036A02FA01F1194301623A
:102C00007047D0F808C02CF47F4C42EA03221143ED
:102C100041EA0C0181607047826822F07002114322
:102C200041F007018160704710B4026A22F001028E
:102C30000262036A4268D0F818C02CF0700C2CF0C5
:102C4000030C0C6844EA0C0C23F002038C68234349
:102C50000E4CA04206D123F00803CC6844EA0303DB
:102C600023F0040309D122F4807222F400724C692B
:102C700044EA02028C6944EA02024260C0F818C0C9
:102C800049684163036210BC70470000002C01409A
:102C900010B4026A22F010020262036A4268D0F89D
:102CA00018C02CF4E04C2CF4407C0C684CEA042C4A
:102CB00023F020038C6843EA04130E4CA04206D193
:102CC00023F08003CC6843EA041323F0400309D1C6
:102CD00022F4806222F400624C6942EA84028C6928
:102CE00042EA84024260C0F818C049688163036206
:102CF00010BC7047002C014010B4026A22F48072AC
:102D00000262036A4268D0F81CC02CF0700C2CF0F0
:102D1000030C0C6844EA0C0C23F400738C6843EA3F
:102D200004230E4CA04206D123F40063CC6843EA8E
:102D3000042323F4806309D122F4805222F4005248
:102D40004C6942EA04128C6942EA04124260C0F8FB
:102D50001CC04968C163036210BC7047002C01406D
:102D600010B4026A22F480520262036A4268D0F808
:102D70001CC02CF4E04C2CF4407C0C684CEA042C75
:102D800023F400538C6843EA0433A0F18044B4F583
:102D9000963404D122F480424C6942EA84124260A3
:102DA000C0F81CC049680164036210BC7047036A24
:102DB000D0F820C02CF0010CC0F820C0D0F818C00A
:102DC0002CF0F00C4CEA021223F00A031943826142
:102DD00001627047036A23F010030362D0F818C041
:102DE000036A2CF4704C4CEA023223F0A00343EA4D
:102DF0000111826101627047F0B5044687B00F4649
:102E00008069FDF7A3FC05460E466068FDF79EFC51
:102E1000CDE90456B4F90830B7F91420B7F92840C1
:102E20000094CDE9013202460B4602A000F010FAF0
:102E300007B0F0BD252E31662C25642C302C25647E
:102E40002C25642C302C252E31662C302C300D0096
:102E500010B5406A0021C185C184FFF7EFF910BDAC
:102E60000168CA6822F49072CA6001684A6922F057
:102E700001024A61016B012904D10168CA6822F08C
:102E80001002CA60202180F83E10002101637047C3
:102E900010B50168CA6822F04002CA60202180F89B
:102EA0003D10FFF704FC002010BD08B590F83E105F
:102EB000222901D0022008BD8268B2F5805F01D1CD
:102EC000016929B1816AB2F5805F1DD052B10BE072
:102ED000816A02685268C2F308020A80816A891C0A
:102EE000816209E002697AB10268526802F07F02E9
:102EF0000A70816A491C8162C18D491E0904090C4E
:102F0000C18505D0002008BD026852680A70F0E74C
:102F10000168CA6822F02002CA600168CA6822F407
:102F20008072CA6001684A6922F001024A61202168
:102F300080F83E10016B012903D0FFF73DFB002014
:102F400008BD002101630168CA6822F01002CA604E
:102F500001680A6812F0100F02D00A6849680091EF
:102F6000818DFFF76AF9EAE72DE9F041254C022748
:102F70000126607A002501281FD16178A078E37AC4
:102F80000A189A421DD121736073E57164230322EC
:102F9000A11D1D48FFF726FB00202554401C0528D5
:102FA000FBDBA57365722774207B617B404206EBD7
:102FB0004000484313492C390880A07A012802D0E8
:102FC00013E0A6726572E67164230322A11D0E4808
:102FD000FFF708FB00202554401C0528FBDBA573E8
:102FE000A5722774E07B401CE073E07B052806D9BE
:102FF000BDE8F0410122D1020448FEF72DB8BDE83A
:10300000F08100007C01002024030020000C01401E
:1030100070B5044620680169E26821F4405111430B
:1030200001612169A0680843616901432068C268A1
:1030300022F4037222F4A0521143C1602068416956
:10304000A26921F44071114341612068A0F18041DF
:10305000B1F59C313AD0FEF719FA00EBC00101EB53
:10306000001061681B4A8900B0FBF1F3A2FB035317
:10307000B0FBF1FC5B096FF018056B430CEB8303AD
:103080004FF0320C0CEB0313A2FB03535B0903F06C
:10309000F005B0FBF1F3A2FB03635B0905EB03133F
:1030A000B0FBF1F5B0FBF1F0A2FB001040096FF0AE
:1030B0001801484305EB80000CEB0010A2FB001048
:1030C0002168C0F343101844886070BDFEF7EEF924
:1030D000C3E700001F85EB5181628285C285002114
:1030E0000164222280F83E2080F83C100168CA6802
:1030F00042F48072CA6001684A6942F001024A6182
:103100000068C16841F02001C1600020704790F85C
:103110003D10212901D0022070478168B1F5805F00
:1031200001D1016961B1016A4A1C02620268097831
:103130005160C18C491E0904090CC1840AD013E0F6
:10314000016A02680988C1F308015160016A891C9B
:103150000162EEE70168CA6822F08002CA60006876
:10316000C16841F04001C160002070472DE9F04185
:103170000446069D884617461E462068006838EAC1
:10318000000020D00020B84227D1B5F1FF3F1CD06D
:1031900025B1FDF769FF801BA84216D92068C168D8
:1031A00021F4D071C1602068416921F001014161C1
:1031B000202084F83D0084F83E00002084F83C0084
:1031C0000320BDE8F0810120DDE72068006838EACF
:1031D000000005D00020B842D7D00020BDE8F08123
:1031E0000120F8E70148FFF72BB800002403002076
:1031F0000021817302220274417281727A228271EB
:103200007F220272C1737047027C0121022A0DD015
:10321000032A0AD1837B4279C254827B042A0FD0CD
:10322000521CD2B28273042A08D8704742790270C5
:103230007A2A03D103220274817370478172704726
:1032400042797F2AFAD1C278C27241727047FEE792
:103250000FB4054B10B503A9044A029800F0CAF850
:1032600010BC5DF814FB0000753C00081400002041
:1032700002E008C8121F08C1002AFAD1704770473F
:10328000002001E001C1121F002AFBD1704700009D
:103290002DE9FF5FDDE90220010DDDF838B00243C2
:1032A00018D044F61050A1F2FF3141430D140F988D
:1032B000012820D0A5EB0B00401C5FEA000A4FF06C
:1032C0000004474EDFF81C91A046504616D5CAF1BF
:1032D000000728E00F98012443A2012808D000210C
:1032E00000980F9BC0E90021C0E90243BDE8FF9FA1
:1032F0006FEA0B01F4E7CBF10000DEE7074612E0CE
:10330000F80707D02246334640464946FDF7D8F82D
:10331000804689462246334610461946FDF7D0F8C6
:1033200004460E467F10002FEAD1DDE90201BAF112
:10333000000F42464B4602DAFDF7C2F801E0FDF706
:1033400031F904460E460022284BFDF757FB03D8FF
:103350004FF0FF30014607E00022254B2046314662
:10336000FDF707F8FDF732FB102409E0002C0ADB1B
:103370000A220023FDF744FA019B30321A55641EDD
:1033800050EA0102F2D1641C019AC4F11103144401
:103390000F9A012A03D0012208430DD10AE0084305
:1033A00004D000204FF0110B0F9080E7A3EB0B052A
:1033B0006D1E0DE05B4504DD4FF0000205F10105D7
:1033C00004E003DA4FF00002A5F10105002AECD079
:1033D00000980F99C0E90231C0E9004586E7000076
:1033E000000024400000F03F300000000000F043E7
:1033F0000000E03F2DE9FF4F95B09B468946064609
:1034000000250FE2252877D100242746F84A01211C
:10341000059400E0044316F8013F203B01FA03F055
:103420001042F7D130782A2811D06FF02F0330786E
:10343000A0F13002092A16D8059A44F0020402EBE2
:10344000820203EB42021044761C0590EFE759F824
:10345000042B0592002A03DA504244F400540590EC
:1034600044F00204761C30782E2816D116F8010F8D
:1034700044F004042A280DD06FF02F023078A0F118
:103480003003092B09D807EB870302EB4303C71866
:10349000761CF3E759F8047B761C30786C280FD043
:1034A00006DC4C2817D068280DD06A2814D104E017
:1034B000742810D07A280FD10DE044F400140AE0EB
:1034C00044F4801401E044F440147278824202D142
:1034D00004F58014761C761C307866280BD013DC3B
:1034E000582877D009DC002875D04528F6D0462822
:1034F000F4D047281AD19DE118E0632835D064281C
:1035000079D0652812D195E1702873D008DC67283E
:10351000F1D069286FD06E280DD06F2806D1B5E0A4
:1035200073282CD0752875D0782874D05A461799EE
:1035300090476D1C75E1C4F30250022809D003289E
:103540000DD0D9F8001004280DD00D6009F1040940
:1035500067E1D9F80010EA17C1E90052F6E7D9F897
:1035600000100D80F2E70D70F0E719F8041B8DF8DC
:10357000001000208DF80100EA46012003E059F810
:1035800004AB4FF0FF3061074FF0000102D40DE0B3
:1035900008F101018846B9420FDA8045F8DB1AF8D4
:1035A00008100029F4D108E008F1010188468142A1
:1035B000FADB1AF808100029F6D105985B46A0EB53
:1035C000080721463846179A00F094FA284400EB81
:1035D000080507E04DE029E10DE01AF8010B5A4615
:1035E00017999047B8F10108F7D25B462146384653
:1035F000179A13E142E00A220092C4F302524FF0FC
:10360000000A022A08D059F804CB032A4FEAEC71C9
:103610000AD00DE029E02AE009F1070121F00702B4
:10362000F2E802C1914609E00FFA8CFC4FEAEC7116
:10363000042A03D14FFA8CFC4FEAEC71002907DA17
:103640000A460021DCF1000C61EB02012D2202E0B0
:10365000220504D52B228DF80420012203E0E20785
:1036600001D02022F7E7904659E00A2102E010221B
:103670000DE010214FF0000A00910BE010224FF0F6
:10368000000A44F004040827009203E008224FF0E7
:10369000000A0092C4F30252022A05D059F804CB62
:1036A0000021032A08D009E009F1070121F00702EF
:1036B000F2E802C1914605E01FFA8CFC042A01D110
:1036C0000CF0FF0C4FF00008220728D5702806D018
:1036D000009B83F0100353EA0A0305D00EE040225A
:1036E0008DF80420012208E05CEA010206D03022B5
:1036F0008DF804208DF8050002229046009B83F08F
:10370000080353EA0A030AD15CEA010201D1620705
:1037100005D530228DF804204FF001087F1E58286F
:1037200004D034A003900EA802900DE036A0F9E773
:1037300053466046009AFDF763F884460398825C1E
:103740000298401E029002705CEA0100F0D10298DB
:1037500006A9081A00F1200A600702D524F4803473
:1037600000E00127574502DDA7EB0A0000E000203A
:1037700000EB0A01009005984144401A0590E003CF
:1037800006D45B462146179A059800F0B3F9054424
:10379000002706E001A85A46C05D179990476D1CA6
:1037A0007F1C4745F6DBE0030CD55B462146179AA4
:1037B000059800F09FF9054404E030205A46179917
:1037C00090476D1C0099481E00900029F5DC08E028
:1037D000029802995A460078491C0291179990471D
:1037E0006D1CBAF10001AAF1010AF1DC65E10000EB
:1037F00009280100303132333435363738396162C7
:10380000636465660000000030313233343536378A
:1038100038394142434445460000000000F058F961
:103820000544761C307800287FF4ECAD19B02846AA
:10383000BDE8F08F620700D4062709F1070222F0E5
:10384000070CFCE80223E14603F000485FEA080C9D
:1038500002D00FF2702C0DE05FEA045C02D50FF28B
:10386000682C07E05FEAC47C02D00FF2602C01E014
:10387000AFF2700C4FF0FF3823F00043CDF850C08A
:1038800065280CD006DC452809D046281DD04728DD
:103890003DD13DE0662818D067287ED138E0002170
:1038A000112F01DB112000E0781CCDE9000106A9F1
:1038B0000EA8FFF7EDFCDDE90F010E9A0391002140
:1038C000009207F1010A04914DE04FF0004000978B
:1038D000CDE9011006A90EA8FFF7DAFCDDE90F0219
:1038E00003920E9B11990022DDF80CA00093049224
:1038F00011B9791C00EB010AB7EB0A0004D4C0F13E
:10390000FF3007F1010A0490AAEB0700019044E0A0
:10391000012F00DA01270021112F01DD112000E025
:103920003846CDE9000106A90EA8FFF7B1FCDDE994
:103930000F010E9A0391002104910092BA462107CB
:103940000CD40399514500DA8A46BAF1010F05DD1E
:10395000009AAAF10101515C302908D0B84202DA7C
:1039600010F1040F06DA0121CDE9011015E0AAF1EA
:103970000101E9E7002805DC049901440491AAEB60
:10398000000102E0411C514500DD8A460499401ABD
:10399000401C01904FF000400290200704D4019891
:1039A000504501DBCDF8048000208DF84F000298CF
:1039B0000DF14F07B0F1004F25D02B200E9002984B
:1039C0004FF0020800280CDA404202902D200E90A1
:1039D00007E00A210298FCF7FDFE3031029007F85B
:1039E000011DB8F10001A8F10108F2DC02980028DD
:1039F000EFD1791E0E980870307800F0200040F06A
:103A0000450007F8020D12A8C01B00F10708149822
:103A1000007800B1012000EB0A01019801EBE07190
:103A200005984144401A401E0590E00306D45B46C9
:103A30002146179A059800F05DF80544149800781F
:103A400018B15A46179990476D1CE00324D55B4680
:103A50002146179A059800F04DF805441CE004989B
:103A6000002807DBDDE90301884203DD0098405CA4
:103A7000179901E0179930205A469047049805F1AC
:103A80000105401C04900198401E019004D12E2095
:103A90005A46179990476D1CBAF10001AAF1010A24
:103AA000DDDC05E017F8010B5A46179990476D1CAD
:103AB000B8F10001A8F10108F4DC5B462146179A31
:103AC0000598ABE62D0000002B0000002000000050
:103AD0002DE9F041044600251E461746880404D40B
:103AE00005E039462020B0476D1C641EF9D52846F4
:103AF000BDE8F0812DE9F041044600251E469046C0
:103B0000C80301D5302700E02027880404D505E04C
:103B100041463846B0476D1C641EF9D52846BDE8BD
:103B2000F08100002DE9F0410B460446114618468D
:103B3000FCF79DFBA062E56906462846616AFCF732
:103B400096FB07464FF07E50A168FCF7C8FB39464C
:103B5000FCF793FBE76A3946FCF737FB2063616BA0
:103B6000E068FCF78AFB3146FCF784FB2168FCF730
:103B700084FB2946FCF729FB16F0FF4F20620AD18F
:103B800017F0FF4F07D11148854204DA10488542EB
:103B900001D2002020622169206AFCF711FE01D2C7
:103BA000206907E06169206AFCF700FE01D26069C4
:103BB00000E0206AA061A06AE062206B6063206A76
:103BC0006062A069E061BDE8F08100000000A040F3
:103BD0000000A0C02DE9F0410C46088007460125F1
:103BE0000969206AFCF7F1FA06463846FCF749FDF8
:103BF0003146FCF7E5FD10D2002020772169206ACC
:103C0000FCF7E3FA06462062B4F90000FCF739FD40
:103C10003146FCF7CBFD23D81CE06169206AFCF734
:103C200026FB0646B4F90000FCF72BFD3146FCF7F5
:103C3000BDFD18D2022020776169206AFCF717FBCE
:103C400006462062B4F90000FCF71BFD3146FCF784
:103C5000B7FD05D8B4F90000FCF713FD2062257705
:103C6000206ABDE8F0812577B4F90000FCF709FD72
:103C70002062F5E713B56423012269460248FEF786
:103C8000B1FC00201CBD0000240300201FB5FDF77F
:103C9000F9F9FEF709FFFEF735FDFEF70BFDFEF71C
:103CA0007BFDFEF7B1FDFEF735FE494847494FF46D
:103CB000165500240160C0E901540C26C460C0E917
:103CC00004468461C461FEF7BBFB08B172B6FEE72F
:103CD0003F48404944300160C0E90154C460C0E934
:103CE00004468461C461FEF7ABFB08B172B6FEE71F
:103CF000FEF7BCFD38490020CDE902013749384DB7
:103D0000CDE900012B46374A4FF07C513648FEF78B
:103D100037FE36490020CDE9020135494FF07E5388
:103D2000CDE90001334A34493448FEF729FE3448CE
:103D3000FCF7BEFE334A0A21334800F073F82946E7
:103D4000324800F0CBF8324800F0B8F920480021A2
:103D50009038FEF7F5F91E4804219038FEF7F0F987
:103D60002C48FDF7BBFE2B484830FDF7B7FE18483E
:103D70004838FDF7B3FE3C212648FEF701F82648F7
:103D8000FFF736FA244912480122491D4430FEF754
:103D9000FBFB224E224D00BFFFF7E6F830780128EA
:103DA0000BD11A4800F0ACF818491548FEF742FE4E
:103DB00016491348FFF720F8347028780128EBD112
:103DC00012490F48FEF708FE2C70E5E70038014065
:103DD000E002002000440040000028C0000028400D
:103DE000CDCCCC3D0AD7233D9C00002000C072C042
:103DF00000C072400000C0400000A040140100203C
:103E0000500100206F12833A180000204800002063
:103E100078000020C00100207C010020000000206C
:103E2000010000202DE9F041044615460846FCF744
:103E300031FCC4E90050FCF789FC06460F462846D1
:103E4000FCF784FC224A234BFCF73AFB32463B4604
:103E5000FCF736FB02460B4600201F49FCF7A2FB8D
:103E6000FCF787FC4FF07E5705463946A061FCF70A
:103E7000ACF906460146FCF700FA804601212846C7
:103E8000FCF76BFA3946FCF7A0F94146FCF727FA34
:103E9000A060F9012846FCF7F0F907464146FCF717
:103EA0001EFAE06038463146FCF719FA29462061CF
:103EB0000846FCF7E2F94146FCF711FA6061002080
:103EC000E06120626062A062E062BDE8F081000013
:103ED000A7E8482EFF2119400000F03F10B500224E
:103EE00002768260C2600282C0E908224FF4257324
:103EF0000380C275428241608275028510BD000058
:103F00002DE9F05F04466B4800686A49C0F3001071
:103F10002431A0750F68A760D4E90865DFF898A17F
:103F20004FF000080121C0B160B1207E012870D09F
:103F30002176A4F8128084F81780A4F81080608A93
:103F40004042A082D4E908014FF425720023FCF717
:103F5000E9F82085E760BDE8F09F207E012808D0C1
:103F60002176A4F8128084F81780A4F81080608A63
:103F7000E7E7208AB0F10009B4F9000026D0FCF789
:103F80008EFB02460B4600205146FCF70BFB824697
:103F90008B46C9EB0940E1683844401A8146FCF77A
:103FA00070FB6168FCF79BF9FCF7D0FB52465B465F
:103FB000FCF786FAFCF7B1FB608219EB060045EBD3
:103FC000E971C4E90801A4F81080D0E7FCF767FBA9
:103FD00002460B4600205146FCF7E4FA8146E068B1
:103FE0008A46381A8046FCF74CFB6168FCF777F983
:103FF000FCF7ACFB4A465346FCF762FAFCF78DFB34
:10400000608218EB060045EBE871C4E90801AEE7F1
:10401000FFE7208AB0F10009B4F9000026D0FCF7D0
:104020003EFB02460B4600205146FCF7BBFA8B468E
:104030008246E168C9EB09400844C01B8146FCF791
:1040400020FB6168FCF74BF9FCF780FB52465B46AE
:10405000FCF736FAFCF761FB6082B6EB090065EB12
:10406000E975C4E90805A4F8108068E7FCF717FBB8
:1040700002460B4600205146FCF794FA8046E06861
:1040800089468246C01BFCF7FCFA6168FCF727F9F9
:10409000FCF75CFB42464B46FCF712FAFCF73DFB93
:1040A0006082A7EB0A01C81789196841C4E90810A2
:1040B00045E70000002C014000004E400021018037
:1040C0000162024901614161704700000000204027
:1040D00000000000000000000102030406070809B8
:1040E0000000000001020304084100080000002055
:1040F000180000007032000820410008180000205D
:10410000500700008032000800000000010000009D
:1041100010000000000000000024F4000000000077
:04000005080000ED02
:00000001FF
